{
  "_format": "hh-sol-artifact-1",
  "contractName": "Coffee",
  "sourceName": "contracts/Coffee.sol",
  "abi": [
    {
      "inputs": [],
      "stateMutability": "nonpayable",
      "type": "constructor"
    },
    {
      "inputs": [
        {
          "internalType": "string",
          "name": "_name",
          "type": "string"
        },
        {
          "internalType": "string",
          "name": "_message",
          "type": "string"
        }
      ],
      "name": "buyCoffee",
      "outputs": [],
      "stateMutability": "payable",
      "type": "function"
    },
    {
      "inputs": [],
      "name": "getCoffees",
      "outputs": [
        {
          "components": [
            {
              "internalType": "uint256",
              "name": "id",
              "type": "uint256"
            },
            {
              "internalType": "string",
              "name": "name",
              "type": "string"
            },
            {
              "internalType": "string",
              "name": "message",
              "type": "string"
            },
            {
              "internalType": "uint256",
              "name": "amount",
              "type": "uint256"
            },
            {
              "internalType": "address",
              "name": "senderAddress",
              "type": "address"
            },
            {
              "internalType": "uint256",
              "name": "time",
              "type": "uint256"
            }
          ],
          "internalType": "struct Coffee.Coffees[]",
          "name": "",
          "type": "tuple[]"
        }
      ],
      "stateMutability": "view",
      "type": "function"
    },
    {
      "inputs": [
        {
          "internalType": "address",
          "name": "_sender",
          "type": "address"
        }
      ],
      "name": "getDonation",
      "outputs": [
        {
          "components": [
            {
              "internalType": "uint256",
              "name": "id",
              "type": "uint256"
            },
            {
              "internalType": "string",
              "name": "name",
              "type": "string"
            },
            {
              "internalType": "string",
              "name": "message",
              "type": "string"
            },
            {
              "internalType": "uint256",
              "name": "amount",
              "type": "uint256"
            },
            {
              "internalType": "address",
              "name": "senderAddress",
              "type": "address"
            },
            {
              "internalType": "uint256",
              "name": "time",
              "type": "uint256"
            }
          ],
          "internalType": "struct Coffee.Coffees",
          "name": "",
          "type": "tuple"
        }
      ],
      "stateMutability": "view",
      "type": "function"
    },
    {
      "stateMutability": "payable",
      "type": "receive"
    }
  ],
  "bytecode": "0x608060405234801561001057600080fd5b50336000806101000a81548173ffffffffffffffffffffffffffffffffffffffff021916908373ffffffffffffffffffffffffffffffffffffffff160217905550611219806100606000396000f3fe6080604052600436106100385760003560e01c8063204206e114610044578063410a1d32146100605780635b0c306d1461009d5761003f565b3661003f57005b600080fd5b61005e60048036038101906100599190610c2f565b6100c8565b005b34801561006c57600080fd5b5061008760048036038101906100829190610d05565b610588565b6040516100949190610e72565b60405180910390f35b3480156100a957600080fd5b506100b2610779565b6040516100bf9190610fe6565b60405180910390f35b600034141561010c576040517f08c379a000000000000000000000000000000000000000000000000000000000815260040161010390611065565b60405180910390fd5b60008054906101000a900473ffffffffffffffffffffffffffffffffffffffff1673ffffffffffffffffffffffffffffffffffffffff163373ffffffffffffffffffffffffffffffffffffffff16141561016557600080fd5b600080339050600073ffffffffffffffffffffffffffffffffffffffff16600360008373ffffffffffffffffffffffffffffffffffffffff1673ffffffffffffffffffffffffffffffffffffffff16815260200190815260200160002060040160009054906101000a900473ffffffffffffffffffffffffffffffffffffffff1673ffffffffffffffffffffffffffffffffffffffff16141561044157600180600082825461021491906110b4565b9250508190555060015491506040518060c001604052808381526020018581526020018481526020013481526020018273ffffffffffffffffffffffffffffffffffffffff168152602001428152506002600084815260200190815260200160002060008201518160000155602082015181600101908051906020019061029c9291906109e6565b5060408201518160020190805190602001906102b99291906109e6565b506060820151816003015560808201518160040160006101000a81548173ffffffffffffffffffffffffffffffffffffffff021916908373ffffffffffffffffffffffffffffffffffffffff16021790555060a082015181600501559050506040518060c001604052808381526020018581526020018481526020013481526020018273ffffffffffffffffffffffffffffffffffffffff16815260200142815250600360008373ffffffffffffffffffffffffffffffffffffffff1673ffffffffffffffffffffffffffffffffffffffff1681526020019081526020016000206000820151816000015560208201518160010190805190602001906103c09291906109e6565b5060408201518160020190805190602001906103dd9291906109e6565b506060820151816003015560808201518160040160006101000a81548173ffffffffffffffffffffffffffffffffffffffff021916908373ffffffffffffffffffffffffffffffffffffffff16021790555060a0820151816005015590505061051b565b600360008273ffffffffffffffffffffffffffffffffffffffff1673ffffffffffffffffffffffffffffffffffffffff16815260200190815260200160002060000154915060006002600084815260200190815260200160002060030154905080346104ad91906110b4565b600260008581526020019081526020016000206003018190555080346104d391906110b4565b600360008473ffffffffffffffffffffffffffffffffffffffff1673ffffffffffffffffffffffffffffffffffffffff16815260200190815260200160002060030181905550505b60008054906101000a900473ffffffffffffffffffffffffffffffffffffffff1673ffffffffffffffffffffffffffffffffffffffff166108fc349081150290604051600060405180830381858888f19350505050158015610581573d6000803e3d6000fd5b5050505050565b610590610a6c565b600360008373ffffffffffffffffffffffffffffffffffffffff1673ffffffffffffffffffffffffffffffffffffffff1681526020019081526020016000206040518060c0016040529081600082015481526020016001820180546105f490611139565b80601f016020809104026020016040519081016040528092919081815260200182805461062090611139565b801561066d5780601f106106425761010080835404028352916020019161066d565b820191906000526020600020905b81548152906001019060200180831161065057829003601f168201915b5050505050815260200160028201805461068690611139565b80601f01602080910402602001604051908101604052809291908181526020018280546106b290611139565b80156106ff5780601f106106d4576101008083540402835291602001916106ff565b820191906000526020600020905b8154815290600101906020018083116106e257829003601f168201915b50505050508152602001600382015481526020016004820160009054906101000a900473ffffffffffffffffffffffffffffffffffffffff1673ffffffffffffffffffffffffffffffffffffffff1673ffffffffffffffffffffffffffffffffffffffff1681526020016005820154815250509050919050565b606060006001805461078b91906110b4565b905060008167ffffffffffffffff8111156107a9576107a8610b04565b5b6040519080825280602002602001820160405280156107e257816020015b6107cf610a6c565b8152602001906001900390816107c75790505b50905060005b828110156109dd576000600260008381526020019081526020016000209050806040518060c00160405290816000820154815260200160018201805461082d90611139565b80601f016020809104026020016040519081016040528092919081815260200182805461085990611139565b80156108a65780601f1061087b576101008083540402835291602001916108a6565b820191906000526020600020905b81548152906001019060200180831161088957829003601f168201915b505050505081526020016002820180546108bf90611139565b80601f01602080910402602001604051908101604052809291908181526020018280546108eb90611139565b80156109385780601f1061090d57610100808354040283529160200191610938565b820191906000526020600020905b81548152906001019060200180831161091b57829003601f168201915b50505050508152602001600382015481526020016004820160009054906101000a900473ffffffffffffffffffffffffffffffffffffffff1673ffffffffffffffffffffffffffffffffffffffff1673ffffffffffffffffffffffffffffffffffffffff1681526020016005820154815250508383815181106109be576109bd61116b565b5b60200260200101819052505080806109d59061119a565b9150506107e8565b50809250505090565b8280546109f290611139565b90600052602060002090601f016020900481019282610a145760008555610a5b565b82601f10610a2d57805160ff1916838001178555610a5b565b82800160010185558215610a5b579182015b82811115610a5a578251825591602001919060010190610a3f565b5b509050610a689190610ab8565b5090565b6040518060c0016040528060008152602001606081526020016060815260200160008152602001600073ffffffffffffffffffffffffffffffffffffffff168152602001600081525090565b5b80821115610ad1576000816000905550600101610ab9565b5090565b6000604051905090565b600080fd5b600080fd5b600080fd5b600080fd5b6000601f19601f8301169050919050565b7f4e487b7100000000000000000000000000000000000000000000000000000000600052604160045260246000fd5b610b3c82610af3565b810181811067ffffffffffffffff82111715610b5b57610b5a610b04565b5b80604052505050565b6000610b6e610ad5565b9050610b7a8282610b33565b919050565b600067ffffffffffffffff821115610b9a57610b99610b04565b5b610ba382610af3565b9050602081019050919050565b82818337600083830152505050565b6000610bd2610bcd84610b7f565b610b64565b905082815260208101848484011115610bee57610bed610aee565b5b610bf9848285610bb0565b509392505050565b600082601f830112610c1657610c15610ae9565b5b8135610c26848260208601610bbf565b91505092915050565b60008060408385031215610c4657610c45610adf565b5b600083013567ffffffffffffffff811115610c6457610c63610ae4565b5b610c7085828601610c01565b925050602083013567ffffffffffffffff811115610c9157610c90610ae4565b5b610c9d85828601610c01565b9150509250929050565b600073ffffffffffffffffffffffffffffffffffffffff82169050919050565b6000610cd282610ca7565b9050919050565b610ce281610cc7565b8114610ced57600080fd5b50565b600081359050610cff81610cd9565b92915050565b600060208284031215610d1b57610d1a610adf565b5b6000610d2984828501610cf0565b91505092915050565b6000819050919050565b610d4581610d32565b82525050565b600081519050919050565b600082825260208201905092915050565b60005b83811015610d85578082015181840152602081019050610d6a565b83811115610d94576000848401525b50505050565b6000610da582610d4b565b610daf8185610d56565b9350610dbf818560208601610d67565b610dc881610af3565b840191505092915050565b610ddc81610cc7565b82525050565b600060c083016000830151610dfa6000860182610d3c565b5060208301518482036020860152610e128282610d9a565b91505060408301518482036040860152610e2c8282610d9a565b9150506060830151610e416060860182610d3c565b506080830151610e546080860182610dd3565b5060a0830151610e6760a0860182610d3c565b508091505092915050565b60006020820190508181036000830152610e8c8184610de2565b905092915050565b600081519050919050565b600082825260208201905092915050565b6000819050602082019050919050565b600060c083016000830151610ed86000860182610d3c565b5060208301518482036020860152610ef08282610d9a565b91505060408301518482036040860152610f0a8282610d9a565b9150506060830151610f1f6060860182610d3c565b506080830151610f326080860182610dd3565b5060a0830151610f4560a0860182610d3c565b508091505092915050565b6000610f5c8383610ec0565b905092915050565b6000602082019050919050565b6000610f7c82610e94565b610f868185610e9f565b935083602082028501610f9885610eb0565b8060005b85811015610fd45784840389528151610fb58582610f50565b9450610fc083610f64565b925060208a01995050600181019050610f9c565b50829750879550505050505092915050565b600060208201905081810360008301526110008184610f71565b905092915050565b600082825260208201905092915050565b7f506c6561736520476976652061646420736f6d652076616c7565000000000000600082015250565b600061104f601a83611008565b915061105a82611019565b602082019050919050565b6000602082019050818103600083015261107e81611042565b9050919050565b7f4e487b7100000000000000000000000000000000000000000000000000000000600052601160045260246000fd5b60006110bf82610d32565b91506110ca83610d32565b9250827fffffffffffffffffffffffffffffffffffffffffffffffffffffffffffffffff038211156110ff576110fe611085565b5b828201905092915050565b7f4e487b7100000000000000000000000000000000000000000000000000000000600052602260045260246000fd5b6000600282049050600182168061115157607f821691505b602082108114156111655761116461110a565b5b50919050565b7f4e487b7100000000000000000000000000000000000000000000000000000000600052603260045260246000fd5b60006111a582610d32565b91507fffffffffffffffffffffffffffffffffffffffffffffffffffffffffffffffff8214156111d8576111d7611085565b5b60018201905091905056fea26469706673582212202eb81e20f7b219cfb424a96849ab1ab95454f15434cbe2cfb26ef8ea8caf40ca64736f6c63430008090033",
  "linkReferences": {},
  "deployedLinkReferences": {}
}